{
  "contractName": "Battleship",
  "abi": [
    {
      "inputs": [],
      "stateMutability": "nonpayable",
      "type": "constructor"
    },
    {
      "anonymous": false,
      "inputs": [
        {
          "indexed": false,
          "internalType": "address",
          "name": "owner",
          "type": "address"
        },
        {
          "indexed": false,
          "internalType": "uint256",
          "name": "id",
          "type": "uint256"
        }
      ],
      "name": "GameCreated",
      "type": "event"
    },
    {
      "anonymous": false,
      "inputs": [
        {
          "indexed": false,
          "internalType": "address",
          "name": "player2",
          "type": "address"
        },
        {
          "indexed": false,
          "internalType": "uint256",
          "name": "id",
          "type": "uint256"
        }
      ],
      "name": "GameReady",
      "type": "event"
    },
    {
      "inputs": [],
      "name": "createGame",
      "outputs": [],
      "stateMutability": "nonpayable",
      "type": "function"
    },
    {
      "inputs": [],
      "name": "joinRandomGame",
      "outputs": [],
      "stateMutability": "nonpayable",
      "type": "function"
    },
    {
      "inputs": [],
      "name": "getCreatedGamesIds",
      "outputs": [
        {
          "internalType": "uint256[]",
          "name": "",
          "type": "uint256[]"
        }
      ],
      "stateMutability": "view",
      "type": "function",
      "constant": true
    },
    {
      "inputs": [
        {
          "internalType": "uint256",
          "name": "gameId",
          "type": "uint256"
        }
      ],
      "name": "joinGameById",
      "outputs": [],
      "stateMutability": "nonpayable",
      "type": "function"
    },
    {
      "inputs": [
        {
          "internalType": "uint256",
          "name": "gameId",
          "type": "uint256"
        },
        {
          "internalType": "bytes32",
          "name": "boardMerkleTreeRoot",
          "type": "bytes32"
        }
      ],
      "name": "commitBoard",
      "outputs": [],
      "stateMutability": "payable",
      "type": "function",
      "payable": true
    },
    {
      "inputs": [
        {
          "internalType": "uint256",
          "name": "gameId",
          "type": "uint256"
        },
        {
          "internalType": "uint16",
          "name": "x",
          "type": "uint16"
        },
        {
          "internalType": "uint16",
          "name": "y",
          "type": "uint16"
        }
      ],
      "name": "guessCell",
      "outputs": [],
      "stateMutability": "nonpayable",
      "type": "function"
    },
    {
      "inputs": [
        {
          "internalType": "uint256",
          "name": "boardSize",
          "type": "uint256"
        },
        {
          "internalType": "uint16",
          "name": "position",
          "type": "uint16"
        },
        {
          "internalType": "bytes32",
          "name": "inputData",
          "type": "bytes32"
        },
        {
          "internalType": "bytes32[]",
          "name": "merkleProof",
          "type": "bytes32[]"
        }
      ],
      "name": "computeMerkleRootFromProof",
      "outputs": [
        {
          "internalType": "bytes32",
          "name": "",
          "type": "bytes32"
        }
      ],
      "stateMutability": "view",
      "type": "function",
      "constant": true
    },
    {
      "inputs": [
        {
          "internalType": "uint256",
          "name": "gameId",
          "type": "uint256"
        },
        {
          "internalType": "uint16",
          "name": "x",
          "type": "uint16"
        },
        {
          "internalType": "uint16",
          "name": "y",
          "type": "uint16"
        },
        {
          "internalType": "bytes32",
          "name": "revealedValue",
          "type": "bytes32"
        },
        {
          "internalType": "bytes32[]",
          "name": "merkleProof",
          "type": "bytes32[]"
        }
      ],
      "name": "revealValue",
      "outputs": [],
      "stateMutability": "nonpayable",
      "type": "function"
    },
    {
      "inputs": [
        {
          "internalType": "uint256",
          "name": "gameId",
          "type": "uint256"
        }
      ],
      "name": "accuseIdle",
      "outputs": [],
      "stateMutability": "nonpayable",
      "type": "function"
    },
    {
      "inputs": [
        {
          "internalType": "uint256",
          "name": "gameId",
          "type": "uint256"
        }
      ],
      "name": "claimReward",
      "outputs": [],
      "stateMutability": "nonpayable",
      "type": "function"
    },
    {
      "inputs": [
        {
          "internalType": "uint256",
          "name": "gameId",
          "type": "uint256"
        }
      ],
      "name": "getGamePhase",
      "outputs": [
        {
          "internalType": "string",
          "name": "",
          "type": "string"
        }
      ],
      "stateMutability": "view",
      "type": "function",
      "constant": true
    },
    {
      "inputs": [
        {
          "internalType": "uint256",
          "name": "gameId",
          "type": "uint256"
        }
      ],
      "name": "getGamePlayers",
      "outputs": [
        {
          "internalType": "address",
          "name": "",
          "type": "address"
        },
        {
          "internalType": "address",
          "name": "",
          "type": "address"
        }
      ],
      "stateMutability": "view",
      "type": "function",
      "constant": true
    },
    {
      "inputs": [
        {
          "internalType": "string",
          "name": "greet",
          "type": "string"
        }
      ],
      "name": "sanityCheck",
      "outputs": [
        {
          "internalType": "string",
          "name": "",
          "type": "string"
        }
      ],
      "stateMutability": "pure",
      "type": "function",
      "constant": true
    }
  ],
  "bytecode": "0x608060405234801561001057600080fd5b50600260036000600461ffff16815260200190815260200160002060006101000a81548161ffff021916908361ffff160217905550600460036000601061ffff16815260200190815260200160002060006101000a81548161ffff021916908361ffff160217905550600660036000604061ffff16815260200190815260200160002060006101000a81548161ffff021916908361ffff16021790555060086003600061010061ffff16815260200190815260200160002060006101000a81548161ffff021916908361ffff16021790555060006002819055506140b7806100f96000396000f3fe6080604052600436106100c25760003560e01c8063a6c524911161007f578063ae169a5011610059578063ae169a5014610232578063aecd3cd21461025b578063cc60598314610284578063d36f68ca146102c1576100c2565b8063a6c52491146101b0578063aa1362ce146101d9578063aac033b914610216576100c2565b806315a40f49146100c7578063342ca184146101055780633b19516d1461011c578063609bcfdc14610145578063619f20621461016e5780637255d72914610199575b600080fd5b3480156100d357600080fd5b506100ee60048036038101906100e99190612b39565b6102fe565b6040516100fc929190612ba7565b60405180910390f35b34801561011157600080fd5b5061011a6103e3565b005b34801561012857600080fd5b50610143600480360381019061013e9190612ca5565b61046e565b005b34801561015157600080fd5b5061016c60048036038101906101679190612b39565b610e61565b005b34801561017a57600080fd5b50610183610e64565b6040516101909190612dfd565b60405180910390f35b3480156101a557600080fd5b506101ae610ebc565b005b3480156101bc57600080fd5b506101d760048036038101906101d29190612e1f565b611226565b005b3480156101e557600080fd5b5061020060048036038101906101fb9190612e72565b611839565b60405161020d9190612f09565b60405180910390f35b610230600480360381019061022b9190612f24565b611a82565b005b34801561023e57600080fd5b5061025960048036038101906102549190612b39565b6120f7565b005b34801561026757600080fd5b50610282600480360381019061027d9190612b39565b6120fa565b005b34801561029057600080fd5b506102ab60048036038101906102a691906130a5565b6121e7565b6040516102b8919061316d565b60405180910390f35b3480156102cd57600080fd5b506102e860048036038101906102e39190612b39565b612210565b6040516102f5919061316d565b60405180910390f35b6000806000805490508310610348576040517f08c379a000000000000000000000000000000000000000000000000000000000815260040161033f906131db565b60405180910390fd5b6000838154811061035c5761035b6131fb565b5b90600052602060002090600c020160010160000160009054906101000a900473ffffffffffffffffffffffffffffffffffffffff16600084815481106103a5576103a46131fb565b5b90600052602060002090600c020160050160000160009054906101000a900473ffffffffffffffffffffffffffffffffffffffff1691509150915091565b60006001805490501161042b576040517f08c379a000000000000000000000000000000000000000000000000000000000815260040161042290613276565b60405180910390fd5b600061043b6001805490506125f7565b9050600060018281548110610453576104526131fb565b5b9060005260206000200154905061046a81336126ac565b5050565b60008054905086106104b5576040517f08c379a00000000000000000000000000000000000000000000000000000000081526004016104ac906131db565b60405180910390fd5b60008087815481106104ca576104c96131fb565b5b90600052602060002090600c02016040518060e00160405290816000820160009054906101000a900461ffff1661ffff1661ffff1681526020016000820160029054906101000a900460ff16600781111561052857610527613296565b5b600781111561053a57610539613296565b5b8152602001600182016040518060800160405290816000820160009054906101000a900473ffffffffffffffffffffffffffffffffffffffff1673ffffffffffffffffffffffffffffffffffffffff1673ffffffffffffffffffffffffffffffffffffffff16815260200160018201548152602001600282015481526020016003820160009054906101000a900461ffff1661ffff1661ffff16815250508152602001600582016040518060800160405290816000820160009054906101000a900473ffffffffffffffffffffffffffffffffffffffff1673ffffffffffffffffffffffffffffffffffffffff1673ffffffffffffffffffffffffffffffffffffffff16815260200160018201548152602001600282015481526020016003820160009054906101000a900461ffff1661ffff1661ffff16815250508152602001600982016040518060400160405290816000820160009054906101000a900461ffff1661ffff1661ffff1681526020016000820160029054906101000a900461ffff1661ffff1661ffff16815250508152602001600a820160009054906101000a900460ff1660ff1660ff168152602001600b8201548152505090506005600781111561070b5761070a613296565b5b8160200151600781111561072257610721613296565b5b148061075657506003600781111561073d5761073c613296565b5b8160200151600781111561075457610753613296565b5b145b610795576040517f08c379a000000000000000000000000000000000000000000000000000000000815260040161078c90613337565b60405180910390fd5b600560078111156107a9576107a8613296565b5b816020015160078111156107c0576107bf613296565b5b036108405780604001516000015173ffffffffffffffffffffffffffffffffffffffff163373ffffffffffffffffffffffffffffffffffffffff161461083b576040517f08c379a0000000000000000000000000000000000000000000000000000000008152600401610832906133c9565b60405180910390fd5b6108b7565b80606001516000015173ffffffffffffffffffffffffffffffffffffffff163373ffffffffffffffffffffffffffffffffffffffff16146108b6576040517f08c379a00000000000000000000000000000000000000000000000000000000081526004016108ad906133c9565b60405180910390fd5b5b80608001516000015161ffff168661ffff1614610909576040517f08c379a00000000000000000000000000000000000000000000000000000000081526004016109009061345b565b60405180910390fd5b80608001516020015161ffff168561ffff161461095b576040517f08c379a0000000000000000000000000000000000000000000000000000000008152600401610952906134ed565b60405180910390fd5b60006101008560001c61096e919061353c565b905060018160ff161480610985575060008160ff16145b6109c4576040517f08c379a00000000000000000000000000000000000000000000000000000000081526004016109bb906135b9565b60405180910390fd5b60006109f5836000015161ffff168985600001518a6109e39190613608565b6109ed9190613645565b888888611839565b905060056007811115610a0b57610a0a613296565b5b83602001516007811115610a2257610a21613296565b5b03610b3d578260400151602001518114610a71576040517f08c379a0000000000000000000000000000000000000000000000000000000008152600401610a68906136c7565b60405180910390fd5b60018260ff1603610aa55760018360400151606001818151610a939190613645565b91509061ffff16908161ffff16815250505b600661ffff1683604001516060015161ffff1603610b065760028360a0019060ff16908160ff1681525050600683602001906007811115610ae957610ae8613296565b5b90816007811115610afd57610afc613296565b5b81525050610b38565b600483602001906007811115610b1f57610b1e613296565b5b90816007811115610b3357610b32613296565b5b815250505b610c4f565b8260600151602001518114610b87576040517f08c379a0000000000000000000000000000000000000000000000000000000008152600401610b7e906136c7565b60405180910390fd5b60018260ff1603610bbb5760018360400151606001818151610ba99190613645565b91509061ffff16908161ffff16815250505b600661ffff1683606001516060015161ffff1603610c1c5760018360a0019060ff16908160ff1681525050600683602001906007811115610bff57610bfe613296565b5b90816007811115610c1357610c12613296565b5b81525050610c4e565b600283602001906007811115610c3557610c34613296565b5b90816007811115610c4957610c48613296565b5b815250505b5b8260008a81548110610c6457610c636131fb565b5b90600052602060002090600c020160008201518160000160006101000a81548161ffff021916908361ffff16021790555060208201518160000160026101000a81548160ff02191690836007811115610cc057610cbf613296565b5b021790555060408201518160010160008201518160000160006101000a81548173ffffffffffffffffffffffffffffffffffffffff021916908373ffffffffffffffffffffffffffffffffffffffff160217905550602082015181600101556040820151816002015560608201518160030160006101000a81548161ffff021916908361ffff160217905550505060608201518160050160008201518160000160006101000a81548173ffffffffffffffffffffffffffffffffffffffff021916908373ffffffffffffffffffffffffffffffffffffffff160217905550602082015181600101556040820151816002015560608201518160030160006101000a81548161ffff021916908361ffff160217905550505060808201518160090160008201518160000160006101000a81548161ffff021916908361ffff16021790555060208201518160000160026101000a81548161ffff021916908361ffff160217905550505060a082015181600a0160006101000a81548160ff021916908360ff16021790555060c082015181600b0155905050505050505050505050565b50565b60606001805480602002602001604051908101604052809291908181526020018280548015610eb257602002820191906000526020600020905b815481526020019060010190808311610e9e575b5050505050905090565b60008080549050905060006040518060e00160405280601061ffff16815260200160006007811115610ef157610ef0613296565b5b815260200160405180608001604052803373ffffffffffffffffffffffffffffffffffffffff1681526020016000801916815260200160008152602001600061ffff1681525081526020016040518060800160405280600073ffffffffffffffffffffffffffffffffffffffff1681526020016000801916815260200160008152602001600061ffff1681525081526020016040518060400160405280600061ffff168152602001600061ffff168152508152602001600060ff1681526020017fffffffffffffffffffffffffffffffffffffffffffffffffffffffffffffffff81525090806001815401808255809150506001900390600052602060002090600c020160009091909190915060008201518160000160006101000a81548161ffff021916908361ffff16021790555060208201518160000160026101000a81548160ff0219169083600781111561104c5761104b613296565b5b021790555060408201518160010160008201518160000160006101000a81548173ffffffffffffffffffffffffffffffffffffffff021916908373ffffffffffffffffffffffffffffffffffffffff160217905550602082015181600101556040820151816002015560608201518160030160006101000a81548161ffff021916908361ffff160217905550505060608201518160050160008201518160000160006101000a81548173ffffffffffffffffffffffffffffffffffffffff021916908373ffffffffffffffffffffffffffffffffffffffff160217905550602082015181600101556040820151816002015560608201518160030160006101000a81548161ffff021916908361ffff160217905550505060808201518160090160008201518160000160006101000a81548161ffff021916908361ffff16021790555060208201518160000160026101000a81548161ffff021916908361ffff160217905550505060a082015181600a0160006101000a81548160ff021916908360ff16021790555060c082015181600b015550506111ea81612907565b7f306841c3fce8498c2d9b7194b8da4c04d03847394e237b625ce6d029b107f077338260405161121b9291906136f6565b60405180910390a150565b600080549050831061126d576040517f08c379a0000000000000000000000000000000000000000000000000000000008152600401611264906131db565b60405180910390fd5b6000808481548110611282576112816131fb565b5b90600052602060002090600c02016040518060e00160405290816000820160009054906101000a900461ffff1661ffff1661ffff1681526020016000820160029054906101000a900460ff1660078111156112e0576112df613296565b5b60078111156112f2576112f1613296565b5b8152602001600182016040518060800160405290816000820160009054906101000a900473ffffffffffffffffffffffffffffffffffffffff1673ffffffffffffffffffffffffffffffffffffffff1673ffffffffffffffffffffffffffffffffffffffff16815260200160018201548152602001600282015481526020016003820160009054906101000a900461ffff1661ffff1661ffff16815250508152602001600582016040518060800160405290816000820160009054906101000a900473ffffffffffffffffffffffffffffffffffffffff1673ffffffffffffffffffffffffffffffffffffffff1673ffffffffffffffffffffffffffffffffffffffff16815260200160018201548152602001600282015481526020016003820160009054906101000a900461ffff1661ffff1661ffff16815250508152602001600982016040518060400160405290816000820160009054906101000a900461ffff1661ffff1661ffff1681526020016000820160029054906101000a900461ffff1661ffff1661ffff16815250508152602001600a820160009054906101000a900460ff1660ff1660ff168152602001600b820154815250509050600260078111156114c3576114c2613296565b5b816020015160078111156114da576114d9613296565b5b148061150e5750600460078111156114f5576114f4613296565b5b8160200151600781111561150c5761150b613296565b5b145b61154d576040517f08c379a000000000000000000000000000000000000000000000000000000000815260040161154490613337565b60405180910390fd5b806000015161ffff168361ffff161061159b576040517f08c379a00000000000000000000000000000000000000000000000000000000081526004016115929061376b565b60405180910390fd5b806000015161ffff168261ffff16106115e9576040517f08c379a00000000000000000000000000000000000000000000000000000000081526004016115e0906137d7565b60405180910390fd5b60003390506002600781111561160257611601613296565b5b8260200151600781111561161957611618613296565b5b036116e75781604001516000015173ffffffffffffffffffffffffffffffffffffffff168173ffffffffffffffffffffffffffffffffffffffff1614611694576040517f08c379a000000000000000000000000000000000000000000000000000000000815260040161168b90613869565b60405180910390fd5b6003600086815481106116aa576116a96131fb565b5b90600052602060002090600c020160000160026101000a81548160ff021916908360078111156116dd576116dc613296565b5b02179055506117ac565b81606001516000015173ffffffffffffffffffffffffffffffffffffffff168173ffffffffffffffffffffffffffffffffffffffff161461175d576040517f08c379a000000000000000000000000000000000000000000000000000000000815260040161175490613869565b60405180910390fd5b600560008681548110611773576117726131fb565b5b90600052602060002090600c020160000160026101000a81548160ff021916908360078111156117a6576117a5613296565b5b02179055505b83600086815481106117c1576117c06131fb565b5b90600052602060002090600c020160090160000160006101000a81548161ffff021916908361ffff1602179055508260008681548110611804576118036131fb565b5b90600052602060002090600c020160090160000160026101000a81548161ffff021916908361ffff1602179055505050505050565b600080600360008861ffff1661ffff16815260200190815260200160002060009054906101000a900461ffff16905060008161ffff16036118af576040517f08c379a00000000000000000000000000000000000000000000000000000000081526004016118a6906138d5565b60405180910390fd5b8061ffff1684849050146118f8576040517f08c379a00000000000000000000000000000000000000000000000000000000081526004016118ef90613941565b60405180910390fd5b60008560405160200161190b9190613982565b604051602081830303815290604052805190602001209050606060005b8361ffff16811015611a7257600060028a611943919061399d565b61ffff16036119cc578260405160200161195d9190613982565b60405160208183030381529060405287878381811061197f5761197e6131fb565b5b905060200201356040516020016119969190613982565b6040516020818303038152906040526040516020016119b6929190613a15565b6040516020818303038152906040529150611a48565b8686828181106119df576119de6131fb565b5b905060200201356040516020016119f69190613982565b60405160208183030381529060405283604051602001611a169190613982565b604051602081830303815290604052604051602001611a36929190613a15565b60405160208183030381529060405291505b81805190602001209250600289611a5f9190613a39565b985080611a6b90613a6a565b9050611928565b5081935050505095945050505050565b6000805490508210611ac9576040517f08c379a0000000000000000000000000000000000000000000000000000000008152600401611ac090613afe565b60405180910390fd5b60016007811115611add57611adc613296565b5b60008381548110611af157611af06131fb565b5b90600052602060002090600c020160000160029054906101000a900460ff166007811115611b2257611b21613296565b5b14611b62576040517f08c379a0000000000000000000000000000000000000000000000000000000008152600401611b5990613b90565b60405180910390fd5b60008281548110611b7657611b756131fb565b5b90600052602060002090600c020160010160000160009054906101000a900473ffffffffffffffffffffffffffffffffffffffff1673ffffffffffffffffffffffffffffffffffffffff163373ffffffffffffffffffffffffffffffffffffffff161480611c57575060008281548110611bf357611bf26131fb565b5b90600052602060002090600c020160050160000160009054906101000a900473ffffffffffffffffffffffffffffffffffffffff1673ffffffffffffffffffffffffffffffffffffffff163373ffffffffffffffffffffffffffffffffffffffff16145b611c96576040517f08c379a0000000000000000000000000000000000000000000000000000000008152600401611c8d90613c22565b60405180910390fd5b60003411611cd9576040517f08c379a0000000000000000000000000000000000000000000000000000000008152600401611cd090613cb4565b60405180910390fd5b6000808381548110611cee57611ced6131fb565b5b90600052602060002090600c020160010160000160009054906101000a900473ffffffffffffffffffffffffffffffffffffffff1673ffffffffffffffffffffffffffffffffffffffff163373ffffffffffffffffffffffffffffffffffffffff1603611ebd576000808481548110611d6a57611d696131fb565b5b90600052602060002090600c02016001016002015414611dbf576040517f08c379a0000000000000000000000000000000000000000000000000000000008152600401611db690613d20565b60405180910390fd5b6000808481548110611dd457611dd36131fb565b5b90600052602060002090600c0201600501600201541115611e5e5760008381548110611e0357611e026131fb565b5b90600052602060002090600c0201600501600201543414611e59576040517f08c379a0000000000000000000000000000000000000000000000000000000008152600401611e5090613db2565b60405180910390fd5b600190505b3460008481548110611e7357611e726131fb565b5b90600052602060002090600c0201600101600201819055508160008481548110611ea057611e9f6131fb565b5b90600052602060002090600c02016001016001018190555061209d565b60008381548110611ed157611ed06131fb565b5b90600052602060002090600c020160050160000160009054906101000a900473ffffffffffffffffffffffffffffffffffffffff1673ffffffffffffffffffffffffffffffffffffffff163373ffffffffffffffffffffffffffffffffffffffff160361209c576000808481548110611f4d57611f4c6131fb565b5b90600052602060002090600c02016005016002015414611fa2576040517f08c379a0000000000000000000000000000000000000000000000000000000008152600401611f9990613d20565b60405180910390fd5b6000808481548110611fb757611fb66131fb565b5b90600052602060002090600c02016001016002015411156120415760008381548110611fe657611fe56131fb565b5b90600052602060002090600c020160010160020154341461203c576040517f08c379a000000000000000000000000000000000000000000000000000000000815260040161203390613db2565b60405180910390fd5b600190505b3460008481548110612056576120556131fb565b5b90600052602060002090600c0201600501600201819055508160008481548110612083576120826131fb565b5b90600052602060002090600c0201600501600101819055505b5b80156120f2576002600084815481106120b9576120b86131fb565b5b90600052602060002090600c020160000160026101000a81548160ff021916908360078111156120ec576120eb613296565b5b02179055505b505050565b50565b6000805490508110612141576040517f08c379a000000000000000000000000000000000000000000000000000000000815260040161213890613e44565b60405180910390fd5b6000600781111561215557612154613296565b5b60008281548110612169576121686131fb565b5b90600052602060002090600c020160000160029054906101000a900460ff16600781111561219a57612199613296565b5b146121da576040517f08c379a00000000000000000000000000000000000000000000000000000000081526004016121d190613eb0565b60405180910390fd5b6121e481336126ac565b50565b6060816040516020016121fa9190613f32565b6040516020818303038152906040529050919050565b60606000805490508210612259576040517f08c379a0000000000000000000000000000000000000000000000000000000008152600401612250906131db565b60405180910390fd5b600080838154811061226e5761226d6131fb565b5b90600052602060002090600c020160000160029054906101000a900460ff169050600060078111156122a3576122a2613296565b5b8160078111156122b6576122b5613296565b5b036122f9576040518060400160405280600781526020017f43524541544544000000000000000000000000000000000000000000000000008152509150506125f2565b6001600781111561230d5761230c613296565b5b8160078111156123205761231f613296565b5b03612363576040518060400160405280601281526020017f57414954494e475f434f4d4d49544d454e5400000000000000000000000000008152509150506125f2565b6002600781111561237757612376613296565b5b81600781111561238a57612389613296565b5b036123cd576040518060400160405280601681526020017f57414954494e475f504c415945525f315f4755455353000000000000000000008152509150506125f2565b600460078111156123e1576123e0613296565b5b8160078111156123f4576123f3613296565b5b03612437576040518060400160405280601681526020017f57414954494e475f504c415945525f325f4755455353000000000000000000008152509150506125f2565b6005600781111561244b5761244a613296565b5b81600781111561245e5761245d613296565b5b036124a1576040518060400160405280601681526020017f57414954494e475f504c415945525f315f56414c5545000000000000000000008152509150506125f2565b600360078111156124b5576124b4613296565b5b8160078111156124c8576124c7613296565b5b0361250b576040518060400160405280601681526020017f57414954494e475f504c415945525f325f56414c5545000000000000000000008152509150506125f2565b6006600781111561251f5761251e613296565b5b81600781111561253257612531613296565b5b03612575576040518060400160405280601481526020017f57414954494e475f424f4152445f52455645414c0000000000000000000000008152509150506125f2565b60078081111561258857612587613296565b5b81600781111561259b5761259a613296565b5b036125de576040518060400160405280600881526020017f46494e49534845440000000000000000000000000000000000000000000000008152509150506125f2565b604051806020016040528060008152509150505b919050565b6000806001436126079190613f58565b40905060016002600082825461261d9190613f8c565b925050819055506000816040516020016126379190613982565b60405160208183030381529060405260025460001b60405160200161265c9190613982565b60405160208183030381529060405260405160200161267c929190613a15565b6040516020818303038152906040528051906020012060001c905083816126a3919061353c565b92505050919050565b60008054905082106126f3576040517f08c379a00000000000000000000000000000000000000000000000000000000081526004016126ea90613e44565b60405180910390fd5b6000600781111561270757612706613296565b5b6000838154811061271b5761271a6131fb565b5b90600052602060002090600c020160000160029054906101000a900460ff16600781111561274c5761274b613296565b5b1461278c576040517f08c379a000000000000000000000000000000000000000000000000000000000815260040161278390613eb0565b60405180910390fd5b6127958261296d565b6001600083815481106127ab576127aa6131fb565b5b90600052602060002090600c020160000160026101000a81548160ff021916908360078111156127de576127dd613296565b5b021790555060405180608001604052808273ffffffffffffffffffffffffffffffffffffffff1681526020016000801916815260200160008152602001600061ffff1681525060008381548110612838576128376131fb565b5b90600052602060002090600c020160050160008201518160000160006101000a81548173ffffffffffffffffffffffffffffffffffffffff021916908373ffffffffffffffffffffffffffffffffffffffff160217905550602082015181600101556040820151816002015560608201518160030160006101000a81548161ffff021916908361ffff1602179055509050507f8f7ffd62ad32fd2f885867603bc808a4ca9c64af09b3af399fdf900c2d7d3c0e81836040516128fb9291906136f6565b60405180910390a15050565b6001819080600181540180825580915050600190039060005260206000200160009091909190915055600180805490506129419190613f58565b60008281548110612955576129546131fb565b5b90600052602060002090600c0201600b018190555050565b6000808281548110612982576129816131fb565b5b90600052602060002090600c0201600b015412156129d5576040517f08c379a00000000000000000000000000000000000000000000000000000000081526004016129cc90614032565b60405180910390fd5b60008082815481106129ea576129e96131fb565b5b90600052602060002090600c0201600b0154905060018080549050612a0f9190613f58565b8103612a42576001805480612a2757612a26614052565b5b60019003818190600052602060002001600090559055612aeb565b60006001808080549050612a569190613f58565b81548110612a6757612a666131fb565b5b906000526020600020015490506001805480612a8657612a85614052565b5b600190038181906000526020600020016000905590558060018381548110612ab157612ab06131fb565b5b90600052602060002001819055508160008281548110612ad457612ad36131fb565b5b90600052602060002090600c0201600b0181905550505b5050565b6000604051905090565b600080fd5b600080fd5b6000819050919050565b612b1681612b03565b8114612b2157600080fd5b50565b600081359050612b3381612b0d565b92915050565b600060208284031215612b4f57612b4e612af9565b5b6000612b5d84828501612b24565b91505092915050565b600073ffffffffffffffffffffffffffffffffffffffff82169050919050565b6000612b9182612b66565b9050919050565b612ba181612b86565b82525050565b6000604082019050612bbc6000830185612b98565b612bc96020830184612b98565b9392505050565b600061ffff82169050919050565b612be781612bd0565b8114612bf257600080fd5b50565b600081359050612c0481612bde565b92915050565b6000819050919050565b612c1d81612c0a565b8114612c2857600080fd5b50565b600081359050612c3a81612c14565b92915050565b600080fd5b600080fd5b600080fd5b60008083601f840112612c6557612c64612c40565b5b8235905067ffffffffffffffff811115612c8257612c81612c45565b5b602083019150836020820283011115612c9e57612c9d612c4a565b5b9250929050565b60008060008060008060a08789031215612cc257612cc1612af9565b5b6000612cd089828a01612b24565b9650506020612ce189828a01612bf5565b9550506040612cf289828a01612bf5565b9450506060612d0389828a01612c2b565b935050608087013567ffffffffffffffff811115612d2457612d23612afe565b5b612d3089828a01612c4f565b92509250509295509295509295565b600081519050919050565b600082825260208201905092915050565b6000819050602082019050919050565b612d7481612b03565b82525050565b6000612d868383612d6b565b60208301905092915050565b6000602082019050919050565b6000612daa82612d3f565b612db48185612d4a565b9350612dbf83612d5b565b8060005b83811015612df0578151612dd78882612d7a565b9750612de283612d92565b925050600181019050612dc3565b5085935050505092915050565b60006020820190508181036000830152612e178184612d9f565b905092915050565b600080600060608486031215612e3857612e37612af9565b5b6000612e4686828701612b24565b9350506020612e5786828701612bf5565b9250506040612e6886828701612bf5565b9150509250925092565b600080600080600060808688031215612e8e57612e8d612af9565b5b6000612e9c88828901612b24565b9550506020612ead88828901612bf5565b9450506040612ebe88828901612c2b565b935050606086013567ffffffffffffffff811115612edf57612ede612afe565b5b612eeb88828901612c4f565b92509250509295509295909350565b612f0381612c0a565b82525050565b6000602082019050612f1e6000830184612efa565b92915050565b60008060408385031215612f3b57612f3a612af9565b5b6000612f4985828601612b24565b9250506020612f5a85828601612c2b565b9150509250929050565b600080fd5b6000601f19601f8301169050919050565b7f4e487b7100000000000000000000000000000000000000000000000000000000600052604160045260246000fd5b612fb282612f69565b810181811067ffffffffffffffff82111715612fd157612fd0612f7a565b5b80604052505050565b6000612fe4612aef565b9050612ff08282612fa9565b919050565b600067ffffffffffffffff8211156130105761300f612f7a565b5b61301982612f69565b9050602081019050919050565b82818337600083830152505050565b600061304861304384612ff5565b612fda565b90508281526020810184848401111561306457613063612f64565b5b61306f848285613026565b509392505050565b600082601f83011261308c5761308b612c40565b5b813561309c848260208601613035565b91505092915050565b6000602082840312156130bb576130ba612af9565b5b600082013567ffffffffffffffff8111156130d9576130d8612afe565b5b6130e584828501613077565b91505092915050565b600081519050919050565b600082825260208201905092915050565b60005b8381101561312857808201518184015260208101905061310d565b60008484015250505050565b600061313f826130ee565b61314981856130f9565b935061315981856020860161310a565b61316281612f69565b840191505092915050565b600060208201905081810360008301526131878184613134565b905092915050565b7f47616d6520646f6573206e6f7420657869737473000000000000000000000000600082015250565b60006131c56014836130f9565b91506131d08261318f565b602082019050919050565b600060208201905081810360008301526131f4816131b8565b9050919050565b7f4e487b7100000000000000000000000000000000000000000000000000000000600052603260045260246000fd5b7f4e6f2063757272656e746c7920617661696c61626c652067616d657300000000600082015250565b6000613260601c836130f9565b915061326b8261322a565b602082019050919050565b6000602082019050818103600083015261328f81613253565b9050919050565b7f4e487b7100000000000000000000000000000000000000000000000000000000600052602160045260246000fd5b7f4f7065726174696f6e206e6f7420737570706f7274656420666f72207468652060008201527f63757272656e742067616d652073746174650000000000000000000000000000602082015250565b60006133216032836130f9565b915061332c826132c5565b604082019050919050565b6000602082019050818103600083015261335081613314565b9050919050565b7f4f6e6c792074686520636f727265637420706c617965722063616e207265766560008201527f616c20612076616c756500000000000000000000000000000000000000000000602082015250565b60006133b3602a836130f9565b91506133be82613357565b604082019050919050565b600060208201905081810360008301526133e2816133a6565b9050919050565b7f7820636f6f7264696e61746520646f6573206e6f74206d61746368206775657360008201527f736564206f6e6500000000000000000000000000000000000000000000000000602082015250565b60006134456027836130f9565b9150613450826133e9565b604082019050919050565b6000602082019050818103600083015261347481613438565b9050919050565b7f7920636f6f7264696e61746520646f6573206e6f74206d61746368206775657360008201527f736564206f6e6500000000000000000000000000000000000000000000000000602082015250565b60006134d76027836130f9565b91506134e28261347b565b604082019050919050565b60006020820190508181036000830152613506816134ca565b9050919050565b7f4e487b7100000000000000000000000000000000000000000000000000000000600052601260045260246000fd5b600061354782612b03565b915061355283612b03565b9250826135625761356161350d565b5b828206905092915050565b7f426f6172642076616c75652063616e206265206f6e6c792030206f7220310000600082015250565b60006135a3601e836130f9565b91506135ae8261356d565b602082019050919050565b600060208201905081810360008301526135d281613596565b9050919050565b7f4e487b7100000000000000000000000000000000000000000000000000000000600052601160045260246000fd5b600061361382612bd0565b915061361e83612bd0565b925082820261362c81612bd0565b915080821461363e5761363d6135d9565b5b5092915050565b600061365082612bd0565b915061365b83612bd0565b9250828201905061ffff811115613675576136746135d9565b5b92915050565b7f4d65726b6c652070726f6f66206973206e6f7420636f72726563740000000000600082015250565b60006136b1601b836130f9565b91506136bc8261367b565b602082019050919050565b600060208201905081810360008301526136e0816136a4565b9050919050565b6136f081612b03565b82525050565b600060408201905061370b6000830185612b98565b61371860208301846136e7565b9392505050565b7f78206d75737420626520696e2074686520626f617264277320626f756e647300600082015250565b6000613755601f836130f9565b91506137608261371f565b602082019050919050565b6000602082019050818103600083015261378481613748565b9050919050565b7f79206d75737420626520696e2074686520626f617264277320626f756e647300600082015250565b60006137c1601f836130f9565b91506137cc8261378b565b602082019050919050565b600060208201905081810360008301526137f0816137b4565b9050919050565b7f4f6e6c792074686520636f727265637420706c617965722063616e206775657360008201527f7320612063656c6c000000000000000000000000000000000000000000000000602082015250565b60006138536028836130f9565b915061385e826137f7565b604082019050919050565b6000602082019050818103600083015261388281613846565b9050919050565b7f496e636f727265637420626f6172642073697a65000000000000000000000000600082015250565b60006138bf6014836130f9565b91506138ca82613889565b602082019050919050565b600060208201905081810360008301526138ee816138b2565b9050919050565b7f496e636f72726563742070726f6f66206c656e67746800000000000000000000600082015250565b600061392b6016836130f9565b9150613936826138f5565b602082019050919050565b6000602082019050818103600083015261395a8161391e565b9050919050565b6000819050919050565b61397c61397782612c0a565b613961565b82525050565b600061398e828461396b565b60208201915081905092915050565b60006139a882612bd0565b91506139b383612bd0565b9250826139c3576139c261350d565b5b828206905092915050565b600081519050919050565b600081905092915050565b60006139ef826139ce565b6139f981856139d9565b9350613a0981856020860161310a565b80840191505092915050565b6000613a2182856139e4565b9150613a2d82846139e4565b91508190509392505050565b6000613a4482612bd0565b9150613a4f83612bd0565b925082613a5f57613a5e61350d565b5b828204905092915050565b6000613a7582612b03565b91507fffffffffffffffffffffffffffffffffffffffffffffffffffffffffffffffff8203613aa757613aa66135d9565b5b600182019050919050565b7f47616d6520646f6573206e6f7420657869737400000000000000000000000000600082015250565b6000613ae86013836130f9565b9150613af382613ab2565b602082019050919050565b60006020820190508181036000830152613b1781613adb565b9050919050565b7f546869732067616d65206973206e6f7420657870656374696e67206120636f6d60008201527f6d69746d656e7400000000000000000000000000000000000000000000000000602082015250565b6000613b7a6027836130f9565b9150613b8582613b1e565b604082019050919050565b60006020820190508181036000830152613ba981613b6d565b9050919050565b7f4f6e6c7920706c6179657273206f6620746869732067616d652063616e20636f60008201527f6d6d697400000000000000000000000000000000000000000000000000000000602082015250565b6000613c0c6024836130f9565b9150613c1782613bb0565b604082019050919050565b60006020820190508181036000830152613c3b81613bff565b9050919050565b7f596f75206861766520746f20636f6d6d697420736f6d652077656920746f207060008201527f6172746963697061746520746f207468652067616d6500000000000000000000602082015250565b6000613c9e6036836130f9565b9150613ca982613c42565b604082019050919050565b60006020820190508181036000830152613ccd81613c91565b9050919050565b7f506c6179657220616c726561647920636f6d6d69747465640000000000000000600082015250565b6000613d0a6018836130f9565b9150613d1582613cd4565b602082019050919050565b60006020820190508181036000830152613d3981613cfd565b9050919050565b7f54686520636f6d6d697474656420616d6f756e7473206861766520746f20626560008201527f207468652073616d6520666f7220626f746820706c6179657273000000000000602082015250565b6000613d9c603a836130f9565b9150613da782613d40565b604082019050919050565b60006020820190508181036000830152613dcb81613d8f565b9050919050565b7f47616d652077697468207468617420696420646f6573206e6f7420657869737460008201527f7300000000000000000000000000000000000000000000000000000000000000602082015250565b6000613e2e6021836130f9565b9150613e3982613dd2565b604082019050919050565b60006020820190508181036000830152613e5d81613e21565b9050919050565b7f47616d6520616c72656164792073746172746564000000000000000000000000600082015250565b6000613e9a6014836130f9565b9150613ea582613e64565b602082019050919050565b60006020820190508181036000830152613ec981613e8d565b9050919050565b7f48656c6c6f200000000000000000000000000000000000000000000000000000815250565b600081905092915050565b6000613f0c826130ee565b613f168185613ef6565b9350613f2681856020860161310a565b80840191505092915050565b6000613f3d82613ed0565b600682019150613f4d8284613f01565b915081905092915050565b6000613f6382612b03565b9150613f6e83612b03565b9250828203905081811115613f8657613f856135d9565b5b92915050565b6000613f9782612b03565b9150613fa283612b03565b9250828201905080821115613fba57613fb96135d9565b5b92915050565b7f47616d65206973206e6f7420696e2074686520637265617465642067616d657360008201527f2073657400000000000000000000000000000000000000000000000000000000602082015250565b600061401c6024836130f9565b915061402782613fc0565b604082019050919050565b6000602082019050818103600083015261404b8161400f565b9050919050565b7f4e487b7100000000000000000000000000000000000000000000000000000000600052603160045260246000fdfea2646970667358221220ef208540e34fd02682ce3310b3c1d7db960918002344cf4cb7d41c2d68692a1d64736f6c63430008130033",
  "immutableReferences": {},
  "source": "// SPDX-License-Identifier: MIT\npragma solidity >=0.4.22 <0.9.0;\n\n\nenum GamePhaseEnum {\n\tCREATED,\n\tWAITING_COMMITMENT,\n\tWAITING_PLAYER_1_GUESS,\n\tWAITING_PLAYER_2_VALUE,\n\tWAITING_PLAYER_2_GUESS,\n\tWAITING_PLAYER_1_VALUE,\n\tWAITING_BOARD_REVEAL,\n\tFINISHED\n}\n\nstruct CellGuessStruct {\n\tuint16 x;\n\tuint16 y;\n}\n\nstruct PlayerStateStruct {\n\taddress playerAddress;\n\tbytes32 committedBoardRoot;\n\tuint256 committedAmount;\n\tuint16 sunkShips;\n}\n\nstruct GameStateStruct {\n\tuint16 boardSize;\n\tGamePhaseEnum gamePhase;\n\tPlayerStateStruct playerState1;\n\tPlayerStateStruct playerState2;\n\tCellGuessStruct currentGuess;\n\n\t// 0 -> no winner (yet)\n\t// 1 -> player 1\n\t// 2 -> player 2\n\tuint8 winner;\n\n\tint256 createdPtr;\n}\n\ncontract Battleship {\n\t//TODO this is variable with board size\n\tuint16 constant TOTAL_SHIPS_ON_BOARD = 6;\n\n\tevent GameCreated(address owner, uint256 id);\n\tevent GameReady(address player2, uint256 id);\n\n\t// Array of all the games\n\tGameStateStruct[] games;\n\n\t// Indexes of the currently created games, used for O(1)\n\t// search of a random game\n\tuint256[] createdGames;\n\n\t// random counter\n\tuint256 randomCounter;\n\n\t// utils LUT for computing log2 of a power of 2\n\tmapping(uint16 => uint16) log2LUT;\n\n\tconstructor() {\n\t\tlog2LUT[4] = 2;\n\t\tlog2LUT[16] = 4;\n\t\tlog2LUT[64] = 6;\n\t\tlog2LUT[256] = 8;\n\n\t\trandomCounter = 0;\n\t}\n\n\tfunction getRandomValue(uint256 b) private returns (uint256) {\n\t\t// returns a random value in the range [0, b)\n\t\t// based on the previous block hash\n\t\t// and the internal counter\n\t\t// every time it is called the value will be different\n\t\t//\n\t\t// NOTE: this random generation can be biased for some choices of b\n\t\t// because this function generates a uniform number in the range [0, 2^256-1]\n\t\t// and then applies the modulo b operation.\n\t\t// If for example b = 2^255 + 2^254 then the values in the range [0, 2^254-1] are\n\t\t// twice as likely to be drawn w.r.t. the other values. For smaller choices of b, this effect\n\t\t// is reduced and can be considered negligible.\n\n\t\tbytes32 blockHash = blockhash(block.number-1);\n\t\trandomCounter += 1;\n\t\tuint256 randValue = uint256(keccak256(bytes.concat(\n\t\t\t\t\tabi.encodePacked(blockHash),\n\t\t\t\t\tabi.encodePacked(bytes32(randomCounter))\n\t\t\t\t)));\n\t\treturn randValue % b;\n\t}\n\n\tfunction insertIntoCreatedGames(uint256 id) private {\n\t\tcreatedGames.push(id);\n\t\tgames[id].createdPtr = int256(createdGames.length - 1);\n\t}\n\n\tfunction removeFromCreatedGames(uint256 gameId) private {\n\t\t// remove the game corresponding to gameId from the created games set\n\t\trequire(games[gameId].createdPtr >= 0, \"Game is not in the created games set\");\n\t\tuint256 createdIndex = uint256(games[gameId].createdPtr);\n\n\t\tif (createdIndex == createdGames.length - 1){\n\t\t\t// this is the last element, just pop it\n\t\t\t// this handles also the case where the length is 1\n\t\t\tcreatedGames.pop();\n\t\t} else {\n\t\t\t// remove this element from the created games\n\t\t\t// swap the last element with this position\n\t\t\t// and update created pointer for that game\n\t\t\tuint256 newElement = createdGames[createdGames.length - 1];\n\t\t\tcreatedGames.pop();\n\t\t\tcreatedGames[createdIndex] = newElement;\n\t\t\tgames[newElement].createdPtr = int256(createdIndex);\n\t\t}\n\t}\n\n\tfunction createGame() public {\n\t\t// cacluate the game's id\n\t\tuint256 id = games.length;\n\n\t\t// create the game struct\n\t\tgames.push(GameStateStruct(\n\t\t\t16, // TODO make this parametric?\n\t\t\tGamePhaseEnum.CREATED,\n\t\t\tPlayerStateStruct(msg.sender, \"\", 0, 0),\n\t\t\tPlayerStateStruct(address(0), \"\", 0, 0),\n\t\t\tCellGuessStruct(0, 0),\n\t\t\t0,\n\t\t\t-1\n\t\t));\n\n\t\t// insert this game in the created games linked list\n\t\tinsertIntoCreatedGames(id);\n\n\t\t// emit the GameCreated event with the newly created game's id\n\t\temit GameCreated(msg.sender, id);\n\t}\n\n\tfunction joinRandomGame() public {\n\t\trequire(createdGames.length > 0, \"No currently available games\");\n\t\tuint256 idx = getRandomValue(createdGames.length);\n\t\tuint256 gameId = createdGames[idx];\n\n\t\t// join the game by that id\n\t\tjoinGamePlayer2ById(gameId, msg.sender);\n\t}\n\n\tfunction getCreatedGamesIds() public view returns (uint256[] memory) {\n\t\treturn createdGames;\n\t}\n\n\tfunction joinGameById(uint256 gameId) public {\n\t\trequire(gameId < games.length, \"Game with that id does not exists\");\n\n\t\t// TODO if a game is deleted??!? I don't care ftm\n\t\trequire(games[gameId].gamePhase == GamePhaseEnum.CREATED, \"Game already started\");\n\t\tjoinGamePlayer2ById(gameId, msg.sender);\n\t}\n\n\tfunction joinGamePlayer2ById(uint256 gameId, address player2) private {\n\t\t// make a player join a game\n\t\trequire(gameId < games.length, \"Game with that id does not exists\");\n\t\trequire(games[gameId].gamePhase == GamePhaseEnum.CREATED, \"Game already started\");\n\n\t\t// first remove it from the createdGames set\n\t\tremoveFromCreatedGames(gameId);\n\n\t\t// store second player information\n\t\tgames[gameId].gamePhase = GamePhaseEnum.WAITING_COMMITMENT;\n\t\tgames[gameId].playerState2 = PlayerStateStruct(player2, \"\", 0, 0);\n\n\t\temit GameReady(player2, gameId);\n\t}\n\n\tfunction commitBoard(uint256 gameId, bytes32 boardMerkleTreeRoot) public payable {\n\t\t// check gameId\n\t\trequire(gameId < games.length, \"Game does not exist\");\n\t\trequire(games[gameId].gamePhase == GamePhaseEnum.WAITING_COMMITMENT, \"This game is not expecting a commitment\");\n\t\trequire(msg.sender == games[gameId].playerState1.playerAddress || msg.sender == games[gameId].playerState2.playerAddress,\n\t\t\t\"Only players of this game can commit\");\n\t\t\n\t\trequire(msg.value > 0, \"You have to commit some wei to participate to the game\");\n\n\t\tbool bothPlayersCommitted = false;\n\n\t\tif (msg.sender == games[gameId].playerState1.playerAddress) {\n\t\t\trequire(games[gameId].playerState1.committedAmount == 0, \"Player already committed\");\n\t\t\tif (games[gameId].playerState2.committedAmount > 0) {\n\t\t\t\trequire(msg.value == games[gameId].playerState2.committedAmount, \"The committed amounts have to be the same for both players\");\n\t\t\t\tbothPlayersCommitted = true;\n\t\t\t} \n\t\t\tgames[gameId].playerState1.committedAmount = msg.value;\n\t\t\tgames[gameId].playerState1.committedBoardRoot = boardMerkleTreeRoot;\n\t\t} else if (msg.sender == games[gameId].playerState2.playerAddress) {\n\t\t\trequire(games[gameId].playerState2.committedAmount == 0, \"Player already committed\");\n\t\t\tif (games[gameId].playerState1.committedAmount > 0) {\n\t\t\t\trequire(msg.value == games[gameId].playerState1.committedAmount, \"The committed amounts have to be the same for both players\");\n\t\t\t\tbothPlayersCommitted = true;\n\t\t\t} \n\t\t\tgames[gameId].playerState2.committedAmount = msg.value;\n\t\t\tgames[gameId].playerState2.committedBoardRoot = boardMerkleTreeRoot;\n\t\t}\n\n\t\tif (bothPlayersCommitted) {\n\t\t\t// TODO some kind of randomization to who starts?\n\t\t\tgames[gameId].gamePhase = GamePhaseEnum.WAITING_PLAYER_1_GUESS;\n\t\t}\n\t}\n\n\tfunction guessCell(uint256 gameId, uint16 x, uint16 y) public {\n\t\t// check gameId\n\t\trequire(gameId < games.length, \"Game does not exists\");\n\t\tGameStateStruct memory game = games[gameId];\n\n\t\trequire(\n\t\t\tgame.gamePhase == GamePhaseEnum.WAITING_PLAYER_1_GUESS || \n\t\t\tgame.gamePhase == GamePhaseEnum.WAITING_PLAYER_2_GUESS,\n\t\t\t\"Operation not supported for the current game state\");\n\n\t\t// check coordinate bounds \n\t\trequire(x < game.boardSize, \"x must be in the board's bounds\");\n\t\trequire(y < game.boardSize, \"y must be in the board's bounds\");\n\n\t\t// check sender is consistent with phase\n\t\t// and go to next state\n\t\taddress guesser = msg.sender;\n\t\tif(game.gamePhase == GamePhaseEnum.WAITING_PLAYER_1_GUESS) {\n\t\t\trequire(guesser == game.playerState1.playerAddress, \"Only the correct player can guess a cell\");\n\t\t\tgames[gameId].gamePhase = GamePhaseEnum.WAITING_PLAYER_2_VALUE;\n\t\t} else {\n\t\t\trequire(guesser == game.playerState2.playerAddress, \"Only the correct player can guess a cell\");\n\t\t\tgames[gameId].gamePhase = GamePhaseEnum.WAITING_PLAYER_1_VALUE;\n\t\t}\n\n\t\t// store the guess\n\t\tgames[gameId].currentGuess.x = x;\n\t\tgames[gameId].currentGuess.y = y;\n\t}\n\n\tfunction computeMerkleRootFromProof(uint256 boardSize, uint16 position, bytes32 inputData, bytes32[] calldata merkleProof)\n\t\t\tpublic view returns (bytes32) {\n\t\tuint16 boardSizeLog = log2LUT[uint16(boardSize)];\n\t\trequire(boardSizeLog != 0, \"Incorrect board size\");\n\t\trequire(merkleProof.length == boardSizeLog, \"Incorrect proof length\");\n\n\t\tbytes32 currHash = keccak256(abi.encodePacked(inputData));\n\t\tbytes memory hashInput;\n\t\tfor(uint256 i=0; i < boardSizeLog; ++i) {\n\t\t\tif (position % 2 == 0) {\n\t\t\t\thashInput = bytes.concat(\n\t\t\t\t\tabi.encodePacked(currHash),\n\t\t\t\t\tabi.encodePacked(merkleProof[i])\n\t\t\t\t);\n\t\t\t} else {\n\t\t\t\thashInput = bytes.concat(\n\t\t\t\t\tabi.encodePacked(merkleProof[i]),\n\t\t\t\t\tabi.encodePacked(currHash)\n\t\t\t\t);\n\t\t\t}\n\t\t\tcurrHash = keccak256(hashInput);\n\t\t\tposition = position / 2; // rounds towards zero\n\t\t}\n\t\treturn currHash;\n\t}\n\n\tfunction revealValue(uint256 gameId, uint16 x, uint16 y, bytes32 revealedValue, bytes32[] calldata merkleProof) public {\n\t\t// check gameId\n\t\trequire(gameId < games.length, \"Game does not exists\");\n\t\tGameStateStruct memory game = games[gameId];\n\n\t\trequire(\n\t\t\tgame.gamePhase == GamePhaseEnum.WAITING_PLAYER_1_VALUE || \n\t\t\tgame.gamePhase == GamePhaseEnum.WAITING_PLAYER_2_VALUE,\n\t\t\t\"Operation not supported for the current game state\");\n\t\t\n\t\t// check sender is consistent with phase\n\t\tif (game.gamePhase == GamePhaseEnum.WAITING_PLAYER_1_VALUE) {\n\t\t\trequire(msg.sender == game.playerState1.playerAddress, \"Only the correct player can reveal a value\");\n\t\t} else {\n\t\t\trequire(msg.sender == game.playerState2.playerAddress, \"Only the correct player can reveal a value\");\n\t\t}\n\n\t\trequire(x == game.currentGuess.x, \"x coordinate does not match guessed one\");\n\t\trequire(y == game.currentGuess.y, \"y coordinate does not match guessed one\");\n\n\t\tuint8 cellValue = uint8(uint256(revealedValue) % 256);\n\t\trequire(cellValue == 1 || cellValue == 0, \"Board value can be only 0 or 1\");\n\n\t\t// check merkle proof\n\t\tbytes32 computedRoot = computeMerkleRootFromProof(game.boardSize,\n\t\t\ty * game.boardSize + x,\n\t\t\trevealedValue,\n\t\t\tmerkleProof);\n\t\t\n\t\tif (game.gamePhase == GamePhaseEnum.WAITING_PLAYER_1_VALUE) {\n\t\t\trequire(computedRoot == game.playerState1.committedBoardRoot, \"Merkle proof is not correct\");\n\t\t\tif (cellValue == 1) {\n\t\t\t\tgame.playerState1.sunkShips += 1;\n\t\t\t}\n\t\t\tif (game.playerState1.sunkShips == TOTAL_SHIPS_ON_BOARD) {\n\t\t\t\tgame.winner = 2;\n\t\t\t\tgame.gamePhase = GamePhaseEnum.WAITING_BOARD_REVEAL;\n\t\t\t} else {\n\t\t\t\tgame.gamePhase = GamePhaseEnum.WAITING_PLAYER_2_GUESS;\n\t\t\t}\n\t\t} else {\n\t\t\trequire(computedRoot == game.playerState2.committedBoardRoot, \"Merkle proof is not correct\");\n\t\t\tif (cellValue == 1) {\n\t\t\t\tgame.playerState1.sunkShips += 1;\n\t\t\t}\n\t\t\tif (game.playerState2.sunkShips == TOTAL_SHIPS_ON_BOARD) {\n\t\t\t\tgame.winner = 1;\n\t\t\t\tgame.gamePhase = GamePhaseEnum.WAITING_BOARD_REVEAL;\n\t\t\t} else {\n\t\t\t\tgame.gamePhase = GamePhaseEnum.WAITING_PLAYER_1_GUESS;\n\t\t\t}\n\t\t}\n\n\t\t// TODO refactora sta cosa pls \n\t\tgames[gameId] = game;\n\t}\n\n\tfunction accuseIdle(uint256 gameId) public {\n\t\t// check game state\n\t\t// emit event\n\t}\n\n\tfunction claimReward(uint256 gameId) public {\n\t\t// reward is claimed if either a game has finished and the msg.sender is the winner\n\t\t// or there is an unresolved accusation for that game, initiated more than 5 blocks ago.\n\t}\n\n\tfunction getGamePhase(uint256 gameId) public view returns (string memory) {\n\t\trequire(gameId < games.length, \"Game does not exists\");\n\t\tGamePhaseEnum gamePhase = games[gameId].gamePhase;\n\t\tif (gamePhase == GamePhaseEnum.CREATED) {\n\t\t\treturn \"CREATED\";\n\t\t} else if (gamePhase == GamePhaseEnum.WAITING_COMMITMENT){\n\t\t\treturn \"WAITING_COMMITMENT\";\n\t\t} else if (gamePhase == GamePhaseEnum.WAITING_PLAYER_1_GUESS){\n\t\t\treturn \"WAITING_PLAYER_1_GUESS\";\n\t\t} else if (gamePhase == GamePhaseEnum.WAITING_PLAYER_2_GUESS){\n\t\t\treturn \"WAITING_PLAYER_2_GUESS\";\n\t\t} else if (gamePhase == GamePhaseEnum.WAITING_PLAYER_1_VALUE){\n\t\t\treturn \"WAITING_PLAYER_1_VALUE\";\n\t\t} else if (gamePhase == GamePhaseEnum.WAITING_PLAYER_2_VALUE){\n\t\t\treturn \"WAITING_PLAYER_2_VALUE\";\n\t\t} else if (gamePhase == GamePhaseEnum.WAITING_BOARD_REVEAL){\n\t\t\treturn \"WAITING_BOARD_REVEAL\";\n\t\t} else if (gamePhase == GamePhaseEnum.FINISHED){\n\t\t\treturn \"FINISHED\";\n\t\t} else {\n\t\t\treturn \"\";\n\t\t}\n\t}\n\n\tfunction getGamePlayers(uint256 gameId) public view returns (address, address) {\n\t\trequire(gameId < games.length, \"Game does not exists\");\n\t\treturn (games[gameId].playerState1.playerAddress, games[gameId].playerState2.playerAddress);\n\t}\n\n    // function that tests the interaction between the frontend and contract\n    function sanityCheck(string memory greet) public pure returns (string memory) {\n        return string.concat(\"Hello \", greet);\n    }\n}\n",
  "sourcePath": "/home/giorgio/uni/p2p/p2p-project/battleship/contracts/Battleship.sol",
  "compiler": {
    "name": "solc",
    "version": "0.8.19+commit.7dd6d404.Emscripten.clang"
  },
  "schemaVersion": "3.4.16",
  "updatedAt": "2023-12-22T20:31:08.201Z",
  "networkType": "ethereum",
  "devdoc": {
    "kind": "dev",
    "methods": {},
    "version": 1
  },
  "userdoc": {
    "kind": "user",
    "methods": {},
    "version": 1
  }
}